{"abi":[{"type":"constructor","inputs":[{"name":"_gatewayUrl","type":"string","internalType":"string"},{"name":"_signer","type":"address","internalType":"address"}],"stateMutability":"nonpayable"},{"type":"function","name":"gatewayUrl","inputs":[],"outputs":[{"name":"","type":"string","internalType":"string"}],"stateMutability":"view"},{"type":"function","name":"owner","inputs":[],"outputs":[{"name":"","type":"address","internalType":"address"}],"stateMutability":"view"},{"type":"function","name":"resolve","inputs":[{"name":"name","type":"bytes","internalType":"bytes"},{"name":"data","type":"bytes","internalType":"bytes"}],"outputs":[{"name":"","type":"bytes","internalType":"bytes"}],"stateMutability":"view"},{"type":"function","name":"resolveWithProof","inputs":[{"name":"response","type":"bytes","internalType":"bytes"},{"name":"","type":"bytes","internalType":"bytes"}],"outputs":[{"name":"","type":"bytes","internalType":"bytes"}],"stateMutability":"view"},{"type":"function","name":"setGatewayUrl","inputs":[{"name":"_url","type":"string","internalType":"string"}],"outputs":[],"stateMutability":"nonpayable"},{"type":"function","name":"setSigner","inputs":[{"name":"_signer","type":"address","internalType":"address"}],"outputs":[],"stateMutability":"nonpayable"},{"type":"function","name":"signer","inputs":[],"outputs":[{"name":"","type":"address","internalType":"address"}],"stateMutability":"view"},{"type":"function","name":"supportsInterface","inputs":[{"name":"interfaceID","type":"bytes4","internalType":"bytes4"}],"outputs":[{"name":"","type":"bool","internalType":"bool"}],"stateMutability":"pure"},{"type":"function","name":"transferOwnership","inputs":[{"name":"newOwner","type":"address","internalType":"address"}],"outputs":[],"stateMutability":"nonpayable"},{"type":"event","name":"GatewayUpdated","inputs":[{"name":"oldUrl","type":"string","indexed":false,"internalType":"string"},{"name":"newUrl","type":"string","indexed":false,"internalType":"string"}],"anonymous":false},{"type":"event","name":"SignerUpdated","inputs":[{"name":"oldSigner","type":"address","indexed":true,"internalType":"address"},{"name":"newSigner","type":"address","indexed":true,"internalType":"address"}],"anonymous":false},{"type":"error","name":"ECDSAInvalidSignature","inputs":[]},{"type":"error","name":"ECDSAInvalidSignatureLength","inputs":[{"name":"length","type":"uint256","internalType":"uint256"}]},{"type":"error","name":"ECDSAInvalidSignatureS","inputs":[{"name":"s","type":"bytes32","internalType":"bytes32"}]},{"type":"error","name":"OffchainLookup","inputs":[{"name":"sender","type":"address","internalType":"address"},{"name":"urls","type":"string[]","internalType":"string[]"},{"name":"callData","type":"bytes","internalType":"bytes"},{"name":"callbackFunction","type":"bytes4","internalType":"bytes4"},{"name":"extraData","type":"bytes","internalType":"bytes"}]}],"bytecode":{"object":"0x60806040523461022c57610d708038038061001981610230565b92833981019060408183031261022c5780516001600160401b03811161022c5781019082601f8301121561022c5781516001600160401b0381116102185761006a601f8201601f1916602001610230565b938185526020828501011161022c576020815f92828096018388015e8501015201516001600160a01b0381169081900361022c5781516001600160401b038111610218575f54600181811c9116801561020e575b60208210146101fa57601f8111610198575b50602092601f821160011461013957928192935f9261012e575b50508160011b915f199060031b1c1916175f555b600180546001600160a01b03199081169290921790556002805490911633179055604051610b1a90816102568239f35b015190505f806100ea565b601f198216935f8052805f20915f5b8681106101805750836001959610610168575b505050811b015f556100fe565b01515f1960f88460031b161c191690555f808061015b565b91926020600181928685015181550194019201610148565b5f80527f290decd9548b62a8d60345a988386fc84ba6bc95484008f6362f93160ef3e563601f830160051c810191602084106101f0575b601f0160051c01905b8181106101e557506100d0565b5f81556001016101d8565b90915081906101cf565b634e487b7160e01b5f52602260045260245ffd5b90607f16906100be565b634e487b7160e01b5f52604160045260245ffd5b5f80fd5b6040519190601f01601f191682016001600160401b038111838210176102185760405256fe6080806040526004361015610012575f80fd5b5f3560e01c90816301ffc9a7146106d7575080631787080e14610471578063238ac933146104495780636c19e783146103cc5780638bf165d91461039d5780638da5cb5b146103755780639061b92314610216578063f2fde38b1461018e5763f4d4d2f81461007f575f80fd5b3461018a5761008d366108a0565b5050810160408282031261018a57813567ffffffffffffffff811161018a57816100b891840161096b565b9160208101359067ffffffffffffffff821161018a5761012092610117926100e0920161096b565b92835160208501207f19457468657265756d205369676e6564204d6573736167653a0a3332000000005f52601c52603c5f20610989565b909291926109c3565b6001546001600160a01b039081169116036101515761014d9060405191829160208352602083019061084e565b0390f35b60405162461bcd60e51b8152602060048201526011602482015270496e76616c6964207369676e617475726560781b6044820152606490fd5b5f80fd5b3461018a57602036600319011261018a576004356001600160a01b0381169081900361018a576002546101cb336001600160a01b038316146108f2565b81156101e1576001600160a01b03191617600255005b60405162461bcd60e51b815260206004820152600d60248201526c24b73b30b634b21037bbb732b960991b6044820152606490fd5b3461018a57610224366108a0565b92906040805193610235828661070d565b60018552601f1982015f5b8181106103625750506102ab906102556107ad565b61025e8761092a565b526102688661092a565b50610297610285845196879360606020860152608085019161094b565b828103601f190185840152888661094b565b33606083015203601f19810185528461070d565b51938492630556f18360e41b845260a4840130600486015260a06024860152855180915260c4850190602060c48260051b8801019701915f905b82821061032d5750505050610329939461030a9160031987830301604488015261084e565b631e9a9a5f60e31b60648601528481036003190160848601529161094b565b0390fd5b919394965091949660208061034e60019360c3198d8203018652895161084e565b9701920192018896949391929795976102e5565b6060602082890181019190915201610240565b3461018a575f36600319011261018a576002546040516001600160a01b039091168152602090f35b3461018a575f36600319011261018a5761014d6103b86107ad565b60405191829160208352602083019061084e565b3461018a57602036600319011261018a576004356001600160a01b0381169081900361018a5761040760018060a01b036002541633146108f2565b600154816001600160a01b0382167f2d025324f0a785e8c12d0a0d91a9caa49df4ef20ff87e0df7213a1d4f3157beb5f80a36001600160a01b03191617600155005b3461018a575f36600319011261018a576001546040516001600160a01b039091168152602090f35b3461018a57602036600319011261018a5760043567ffffffffffffffff811161018a573660238201121561018a576104b390369060248160040135910161072f565b6104c860018060a01b036002541633146108f2565b604051604081525f905f54916104dd83610775565b80604084015260018416805f146106b75760011461066f575b50908061052c83827f59678a98e19bc7d63a03cfd145619d528e7434e4fe70c5be1c20d329f590ed20950360208401528661084e565b0390a181519067ffffffffffffffff821161065b5761054a90610775565b601f81116105f4575b50602091601f821160011461058e579181925f92610583575b50505f19600383901b1c191660019190911b175f55005b01519050828061056c565b601f198216925f80525f80516020610ac5833981519152915f5b8581106105dc575083600195106105c4575b505050811b015f55005b01515f1960f88460031b161c191690558280806105ba565b919260206001819286850151815501940192016105a8565b5f8052601f820160051c5f80516020610ac5833981519152019060208310610646575b601f0160051c5f80516020610ac583398151915201905b81811061063b5750610553565b5f815560010161062e565b5f80516020610ac58339815191529150610617565b634e487b7160e01b5f52604160045260245ffd5b5f8080525f80516020610ac5833981519152939250905b80821061069c57509091508101606001816104f6565b91926001816020925460608588010152019101909291610686565b5060ff19841660608085019190915290151560051b8301019050816104f6565b3461018a57602036600319011261018a576004359063ffffffff60e01b821680920361018a57602091639061b92360e01b148152f35b90601f8019910116810190811067ffffffffffffffff82111761065b57604052565b92919267ffffffffffffffff821161065b5760405191610759601f8201601f19166020018461070d565b82948184528183011161018a578281602093845f960137010152565b90600182811c921680156107a3575b602083101461078f57565b634e487b7160e01b5f52602260045260245ffd5b91607f1691610784565b604051905f825f54916107bf83610775565b808352926001811690811561082f57506001146107e5575b6107e39250038361070d565b565b505f80805290915f80516020610ac58339815191525b8183106108135750509060206107e3928201016107d7565b60209193508060019154838589010152019101909184926107fb565b602092506107e394915060ff191682840152151560051b8201016107d7565b805180835260209291819084018484015e5f828201840152601f01601f1916010190565b9181601f8401121561018a5782359167ffffffffffffffff831161018a576020838186019501011161018a57565b604060031982011261018a5760043567ffffffffffffffff811161018a57816108cb91600401610872565b929092916024359067ffffffffffffffff821161018a576108ee91600401610872565b9091565b156108f957565b60405162461bcd60e51b81526020600482015260096024820152682737ba1037bbb732b960b91b6044820152606490fd5b8051156109375760200190565b634e487b7160e01b5f52603260045260245ffd5b908060209392818452848401375f828201840152601f01601f1916010190565b9080601f8301121561018a578160206109869335910161072f565b90565b81519190604183036109b9576109b29250602082015190606060408401519301515f1a90610a37565b9192909190565b50505f9160029190565b6004811015610a2357806109d5575050565b600181036109ec5763f645eedf60e01b5f5260045ffd5b60028103610a07575063fce698f760e01b5f5260045260245ffd5b600314610a115750565b6335e2f38360e21b5f5260045260245ffd5b634e487b7160e01b5f52602160045260245ffd5b91907f7fffffffffffffffffffffffffffffff5d576e7357a4501ddfe92f46681b20a08411610ab9579160209360809260ff5f9560405194855216868401526040830152606082015282805260015afa15610aae575f516001600160a01b03811615610aa457905f905f90565b505f906001905f90565b6040513d5f823e3d90fd5b5050505f916003919056fe290decd9548b62a8d60345a988386fc84ba6bc95484008f6362f93160ef3e563a26469706673582212202d70ac186610ba763feefdb4d5d0f66ff69a37a056a924e907beeeba5f74622264736f6c634300081a0033","linkReferences":{}},"methodIdentifiers":{"gatewayUrl()":"8bf165d9","owner()":"8da5cb5b","resolve(bytes,bytes)":"9061b923","resolveWithProof(bytes,bytes)":"f4d4d2f8","setGatewayUrl(string)":"1787080e","setSigner(address)":"6c19e783","signer()":"238ac933","supportsInterface(bytes4)":"01ffc9a7","transferOwnership(address)":"f2fde38b"},"id":46}