{"abi":[{"type":"constructor","inputs":[{"name":"_poolManager","type":"address","internalType":"contract IPoolManager"}],"stateMutability":"nonpayable"},{"type":"function","name":"GLOBAL_T1","inputs":[],"outputs":[{"name":"","type":"uint256","internalType":"uint256"}],"stateMutability":"view"},{"type":"function","name":"GLOBAL_T2","inputs":[],"outputs":[{"name":"","type":"uint256","internalType":"uint256"}],"stateMutability":"view"},{"type":"function","name":"GLOBAL_T3","inputs":[],"outputs":[{"name":"","type":"uint256","internalType":"uint256"}],"stateMutability":"view"},{"type":"function","name":"GLOBAL_T4","inputs":[],"outputs":[{"name":"","type":"uint256","internalType":"uint256"}],"stateMutability":"view"},{"type":"function","name":"GLOBAL_T5","inputs":[],"outputs":[{"name":"","type":"uint256","internalType":"uint256"}],"stateMutability":"view"},{"type":"function","name":"GLOBAL_T6","inputs":[],"outputs":[{"name":"","type":"uint256","internalType":"uint256"}],"stateMutability":"view"},{"type":"function","name":"GLOBAL_WINDOW","inputs":[],"outputs":[{"name":"","type":"uint256","internalType":"uint256"}],"stateMutability":"view"},{"type":"function","name":"MAX_FEE","inputs":[],"outputs":[{"name":"","type":"uint24","internalType":"uint24"}],"stateMutability":"view"},{"type":"function","name":"TIER_0","inputs":[],"outputs":[{"name":"","type":"uint24","internalType":"uint24"}],"stateMutability":"view"},{"type":"function","name":"TIER_1","inputs":[],"outputs":[{"name":"","type":"uint24","internalType":"uint24"}],"stateMutability":"view"},{"type":"function","name":"TIER_2","inputs":[],"outputs":[{"name":"","type":"uint24","internalType":"uint24"}],"stateMutability":"view"},{"type":"function","name":"TIER_3","inputs":[],"outputs":[{"name":"","type":"uint24","internalType":"uint24"}],"stateMutability":"view"},{"type":"function","name":"TIER_4","inputs":[],"outputs":[{"name":"","type":"uint24","internalType":"uint24"}],"stateMutability":"view"},{"type":"function","name":"TIER_5","inputs":[],"outputs":[{"name":"","type":"uint24","internalType":"uint24"}],"stateMutability":"view"},{"type":"function","name":"TIER_6","inputs":[],"outputs":[{"name":"","type":"uint24","internalType":"uint24"}],"stateMutability":"view"},{"type":"function","name":"USER_WINDOW","inputs":[],"outputs":[{"name":"","type":"uint256","internalType":"uint256"}],"stateMutability":"view"},{"type":"function","name":"afterAddLiquidity","inputs":[{"name":"sender","type":"address","internalType":"address"},{"name":"key","type":"tuple","internalType":"struct PoolKey","components":[{"name":"currency0","type":"address","internalType":"Currency"},{"name":"currency1","type":"address","internalType":"Currency"},{"name":"fee","type":"uint24","internalType":"uint24"},{"name":"tickSpacing","type":"int24","internalType":"int24"},{"name":"hooks","type":"address","internalType":"contract IHooks"}]},{"name":"params","type":"tuple","internalType":"struct ModifyLiquidityParams","components":[{"name":"tickLower","type":"int24","internalType":"int24"},{"name":"tickUpper","type":"int24","internalType":"int24"},{"name":"liquidityDelta","type":"int256","internalType":"int256"},{"name":"salt","type":"bytes32","internalType":"bytes32"}]},{"name":"delta","type":"int256","internalType":"BalanceDelta"},{"name":"feesAccrued","type":"int256","internalType":"BalanceDelta"},{"name":"hookData","type":"bytes","internalType":"bytes"}],"outputs":[{"name":"","type":"bytes4","internalType":"bytes4"},{"name":"","type":"int256","internalType":"BalanceDelta"}],"stateMutability":"nonpayable"},{"type":"function","name":"afterDonate","inputs":[{"name":"sender","type":"address","internalType":"address"},{"name":"key","type":"tuple","internalType":"struct PoolKey","components":[{"name":"currency0","type":"address","internalType":"Currency"},{"name":"currency1","type":"address","internalType":"Currency"},{"name":"fee","type":"uint24","internalType":"uint24"},{"name":"tickSpacing","type":"int24","internalType":"int24"},{"name":"hooks","type":"address","internalType":"contract IHooks"}]},{"name":"amount0","type":"uint256","internalType":"uint256"},{"name":"amount1","type":"uint256","internalType":"uint256"},{"name":"hookData","type":"bytes","internalType":"bytes"}],"outputs":[{"name":"","type":"bytes4","internalType":"bytes4"}],"stateMutability":"nonpayable"},{"type":"function","name":"afterInitialize","inputs":[{"name":"sender","type":"address","internalType":"address"},{"name":"key","type":"tuple","internalType":"struct PoolKey","components":[{"name":"currency0","type":"address","internalType":"Currency"},{"name":"currency1","type":"address","internalType":"Currency"},{"name":"fee","type":"uint24","internalType":"uint24"},{"name":"tickSpacing","type":"int24","internalType":"int24"},{"name":"hooks","type":"address","internalType":"contract IHooks"}]},{"name":"sqrtPriceX96","type":"uint160","internalType":"uint160"},{"name":"tick","type":"int24","internalType":"int24"}],"outputs":[{"name":"","type":"bytes4","internalType":"bytes4"}],"stateMutability":"nonpayable"},{"type":"function","name":"afterRemoveLiquidity","inputs":[{"name":"sender","type":"address","internalType":"address"},{"name":"key","type":"tuple","internalType":"struct PoolKey","components":[{"name":"currency0","type":"address","internalType":"Currency"},{"name":"currency1","type":"address","internalType":"Currency"},{"name":"fee","type":"uint24","internalType":"uint24"},{"name":"tickSpacing","type":"int24","internalType":"int24"},{"name":"hooks","type":"address","internalType":"contract IHooks"}]},{"name":"params","type":"tuple","internalType":"struct ModifyLiquidityParams","components":[{"name":"tickLower","type":"int24","internalType":"int24"},{"name":"tickUpper","type":"int24","internalType":"int24"},{"name":"liquidityDelta","type":"int256","internalType":"int256"},{"name":"salt","type":"bytes32","internalType":"bytes32"}]},{"name":"delta","type":"int256","internalType":"BalanceDelta"},{"name":"feesAccrued","type":"int256","internalType":"BalanceDelta"},{"name":"hookData","type":"bytes","internalType":"bytes"}],"outputs":[{"name":"","type":"bytes4","internalType":"bytes4"},{"name":"","type":"int256","internalType":"BalanceDelta"}],"stateMutability":"nonpayable"},{"type":"function","name":"afterSwap","inputs":[{"name":"sender","type":"address","internalType":"address"},{"name":"key","type":"tuple","internalType":"struct PoolKey","components":[{"name":"currency0","type":"address","internalType":"Currency"},{"name":"currency1","type":"address","internalType":"Currency"},{"name":"fee","type":"uint24","internalType":"uint24"},{"name":"tickSpacing","type":"int24","internalType":"int24"},{"name":"hooks","type":"address","internalType":"contract IHooks"}]},{"name":"params","type":"tuple","internalType":"struct SwapParams","components":[{"name":"zeroForOne","type":"bool","internalType":"bool"},{"name":"amountSpecified","type":"int256","internalType":"int256"},{"name":"sqrtPriceLimitX96","type":"uint160","internalType":"uint160"}]},{"name":"delta","type":"int256","internalType":"BalanceDelta"},{"name":"hookData","type":"bytes","internalType":"bytes"}],"outputs":[{"name":"","type":"bytes4","internalType":"bytes4"},{"name":"","type":"int128","internalType":"int128"}],"stateMutability":"nonpayable"},{"type":"function","name":"beforeAddLiquidity","inputs":[{"name":"sender","type":"address","internalType":"address"},{"name":"key","type":"tuple","internalType":"struct PoolKey","components":[{"name":"currency0","type":"address","internalType":"Currency"},{"name":"currency1","type":"address","internalType":"Currency"},{"name":"fee","type":"uint24","internalType":"uint24"},{"name":"tickSpacing","type":"int24","internalType":"int24"},{"name":"hooks","type":"address","internalType":"contract IHooks"}]},{"name":"params","type":"tuple","internalType":"struct ModifyLiquidityParams","components":[{"name":"tickLower","type":"int24","internalType":"int24"},{"name":"tickUpper","type":"int24","internalType":"int24"},{"name":"liquidityDelta","type":"int256","internalType":"int256"},{"name":"salt","type":"bytes32","internalType":"bytes32"}]},{"name":"hookData","type":"bytes","internalType":"bytes"}],"outputs":[{"name":"","type":"bytes4","internalType":"bytes4"}],"stateMutability":"nonpayable"},{"type":"function","name":"beforeDonate","inputs":[{"name":"sender","type":"address","internalType":"address"},{"name":"key","type":"tuple","internalType":"struct PoolKey","components":[{"name":"currency0","type":"address","internalType":"Currency"},{"name":"currency1","type":"address","internalType":"Currency"},{"name":"fee","type":"uint24","internalType":"uint24"},{"name":"tickSpacing","type":"int24","internalType":"int24"},{"name":"hooks","type":"address","internalType":"contract IHooks"}]},{"name":"amount0","type":"uint256","internalType":"uint256"},{"name":"amount1","type":"uint256","internalType":"uint256"},{"name":"hookData","type":"bytes","internalType":"bytes"}],"outputs":[{"name":"","type":"bytes4","internalType":"bytes4"}],"stateMutability":"nonpayable"},{"type":"function","name":"beforeInitialize","inputs":[{"name":"sender","type":"address","internalType":"address"},{"name":"key","type":"tuple","internalType":"struct PoolKey","components":[{"name":"currency0","type":"address","internalType":"Currency"},{"name":"currency1","type":"address","internalType":"Currency"},{"name":"fee","type":"uint24","internalType":"uint24"},{"name":"tickSpacing","type":"int24","internalType":"int24"},{"name":"hooks","type":"address","internalType":"contract IHooks"}]},{"name":"sqrtPriceX96","type":"uint160","internalType":"uint160"}],"outputs":[{"name":"","type":"bytes4","internalType":"bytes4"}],"stateMutability":"nonpayable"},{"type":"function","name":"beforeRemoveLiquidity","inputs":[{"name":"sender","type":"address","internalType":"address"},{"name":"key","type":"tuple","internalType":"struct PoolKey","components":[{"name":"currency0","type":"address","internalType":"Currency"},{"name":"currency1","type":"address","internalType":"Currency"},{"name":"fee","type":"uint24","internalType":"uint24"},{"name":"tickSpacing","type":"int24","internalType":"int24"},{"name":"hooks","type":"address","internalType":"contract IHooks"}]},{"name":"params","type":"tuple","internalType":"struct ModifyLiquidityParams","components":[{"name":"tickLower","type":"int24","internalType":"int24"},{"name":"tickUpper","type":"int24","internalType":"int24"},{"name":"liquidityDelta","type":"int256","internalType":"int256"},{"name":"salt","type":"bytes32","internalType":"bytes32"}]},{"name":"hookData","type":"bytes","internalType":"bytes"}],"outputs":[{"name":"","type":"bytes4","internalType":"bytes4"}],"stateMutability":"nonpayable"},{"type":"function","name":"beforeSwap","inputs":[{"name":"sender","type":"address","internalType":"address"},{"name":"key","type":"tuple","internalType":"struct PoolKey","components":[{"name":"currency0","type":"address","internalType":"Currency"},{"name":"currency1","type":"address","internalType":"Currency"},{"name":"fee","type":"uint24","internalType":"uint24"},{"name":"tickSpacing","type":"int24","internalType":"int24"},{"name":"hooks","type":"address","internalType":"contract IHooks"}]},{"name":"params","type":"tuple","internalType":"struct SwapParams","components":[{"name":"zeroForOne","type":"bool","internalType":"bool"},{"name":"amountSpecified","type":"int256","internalType":"int256"},{"name":"sqrtPriceLimitX96","type":"uint160","internalType":"uint160"}]},{"name":"hookData","type":"bytes","internalType":"bytes"}],"outputs":[{"name":"","type":"bytes4","internalType":"bytes4"},{"name":"","type":"int256","internalType":"BeforeSwapDelta"},{"name":"","type":"uint24","internalType":"uint24"}],"stateMutability":"nonpayable"},{"type":"function","name":"getCurrentFee","inputs":[{"name":"poolId","type":"bytes32","internalType":"PoolId"},{"name":"user","type":"address","internalType":"address"}],"outputs":[{"name":"","type":"uint24","internalType":"uint24"}],"stateMutability":"view"},{"type":"function","name":"getGlobalStats","inputs":[{"name":"poolId","type":"bytes32","internalType":"PoolId"}],"outputs":[{"name":"swapsThisHour","type":"uint256","internalType":"uint256"},{"name":"currentBaseFee","type":"uint24","internalType":"uint24"}],"stateMutability":"view"},{"type":"function","name":"getHookPermissions","inputs":[],"outputs":[{"name":"","type":"tuple","internalType":"struct Hooks.Permissions","components":[{"name":"beforeInitialize","type":"bool","internalType":"bool"},{"name":"afterInitialize","type":"bool","internalType":"bool"},{"name":"beforeAddLiquidity","type":"bool","internalType":"bool"},{"name":"afterAddLiquidity","type":"bool","internalType":"bool"},{"name":"beforeRemoveLiquidity","type":"bool","internalType":"bool"},{"name":"afterRemoveLiquidity","type":"bool","internalType":"bool"},{"name":"beforeSwap","type":"bool","internalType":"bool"},{"name":"afterSwap","type":"bool","internalType":"bool"},{"name":"beforeDonate","type":"bool","internalType":"bool"},{"name":"afterDonate","type":"bool","internalType":"bool"},{"name":"beforeSwapReturnDelta","type":"bool","internalType":"bool"},{"name":"afterSwapReturnDelta","type":"bool","internalType":"bool"},{"name":"afterAddLiquidityReturnDelta","type":"bool","internalType":"bool"},{"name":"afterRemoveLiquidityReturnDelta","type":"bool","internalType":"bool"}]}],"stateMutability":"pure"},{"type":"function","name":"getSurgeLevel","inputs":[{"name":"poolId","type":"bytes32","internalType":"PoolId"}],"outputs":[{"name":"","type":"uint8","internalType":"uint8"}],"stateMutability":"view"},{"type":"function","name":"getUserStats","inputs":[{"name":"poolId","type":"bytes32","internalType":"PoolId"},{"name":"user","type":"address","internalType":"address"}],"outputs":[{"name":"swapsLast10Min","type":"uint256","internalType":"uint256"},{"name":"multiplier","type":"uint8","internalType":"uint8"},{"name":"totalSwaps","type":"uint256","internalType":"uint256"}],"stateMutability":"view"},{"type":"function","name":"globalActivity","inputs":[{"name":"","type":"bytes32","internalType":"PoolId"}],"outputs":[{"name":"swapCount","type":"uint256","internalType":"uint256"},{"name":"windowStart","type":"uint256","internalType":"uint256"}],"stateMutability":"view"},{"type":"function","name":"poolManager","inputs":[],"outputs":[{"name":"","type":"address","internalType":"contract IPoolManager"}],"stateMutability":"view"},{"type":"function","name":"userActivity","inputs":[{"name":"","type":"bytes32","internalType":"PoolId"},{"name":"","type":"address","internalType":"address"}],"outputs":[{"name":"swapCount","type":"uint256","internalType":"uint256"},{"name":"windowStart","type":"uint256","internalType":"uint256"},{"name":"totalSwaps","type":"uint256","internalType":"uint256"}],"stateMutability":"view"},{"type":"event","name":"FeeApplied","inputs":[{"name":"poolId","type":"bytes32","indexed":true,"internalType":"PoolId"},{"name":"user","type":"address","indexed":true,"internalType":"address"},{"name":"finalFee","type":"uint24","indexed":false,"internalType":"uint24"}],"anonymous":false},{"type":"event","name":"SpamDetected","inputs":[{"name":"poolId","type":"bytes32","indexed":true,"internalType":"PoolId"},{"name":"user","type":"address","indexed":true,"internalType":"address"},{"name":"userSwaps","type":"uint256","indexed":false,"internalType":"uint256"},{"name":"multiplier","type":"uint8","indexed":false,"internalType":"uint8"}],"anonymous":false},{"type":"event","name":"SurgeLevel","inputs":[{"name":"poolId","type":"bytes32","indexed":true,"internalType":"PoolId"},{"name":"swapsInWindow","type":"uint256","indexed":false,"internalType":"uint256"},{"name":"baseFee","type":"uint24","indexed":false,"internalType":"uint24"}],"anonymous":false},{"type":"error","name":"HookNotImplemented","inputs":[]},{"type":"error","name":"NotPoolManager","inputs":[]}],"bytecode":{"object":"0x60a034609057601f61108038819003918201601f19168301916001600160401b03831184841017609457808492602094604052833981010312609057516001600160a01b0381168103609057608052604051610fd790816100a9823960805181818161022c015281816102ae015281816103000152818161057101528181610794015281816109790152610ab00152f35b5f80fd5b634e487b7160e01b5f52604160045260245ffdfe6080806040526004361015610012575f80fd5b5f3560e01c908163057b9d9a14610b65575080630e83774a14610b285780631d2a056114610b0c5780631f45f2c214610af157806321d0ee7014610a9d578063259982e514610a9d5780633eb50beb14610a815780634984f95414610a26578063575e24b414610922578063655584a8146109065780636661841c1461089a5780636c2bbe7e146107815780636e2e1a96146108545780636fe7e6eb1461081c578063737eae4f146107f357806395867a601461032f5780639dd58485146107d75780639f063efc14610781578063a2f69a5914610765578063b47b2fb11461051a578063b6a8b0fa14610219578063bc063e1a146104fd578063c4e833ce1461039e578063cc286b8b14610381578063d42bb75d14610365578063d4630c271461034a578063d4d8a4c01461032f578063dc4c90d3146102eb578063dc98354e1461027d578063e1b4af6914610219578063e6f3f0fe146101fe578063e87ddb4a146101cc578063eea45763146101b15763f33e2f1f14610192575f80fd5b346101ad575f3660031901126101ad576020604051603c8152f35b5f80fd5b346101ad575f3660031901126101ad57602060405160058152f35b346101ad5760203660031901126101ad576004355f525f6020526040805f206001815491015482519182526020820152f35b346101ad575f3660031901126101ad576020604051600f8152f35b346101ad5761022736610cce565b5050507f00000000000000000000000000000000000000000000000000000000000000006001600160a01b03163303925061026e91505057630a85dc2960e01b5f5260045ffd5b63570c108560e11b5f5260045ffd5b346101ad5760e03660031901126101ad57610296610b96565b5060a03660231901126101ad576102ab610ca8565b507f00000000000000000000000000000000000000000000000000000000000000006001600160a01b0316330361026e57630a85dc2960e01b5f5260045ffd5b346101ad575f3660031901126101ad576040517f00000000000000000000000000000000000000000000000000000000000000006001600160a01b03168152602090f35b346101ad575f3660031901126101ad57602060405160648152f35b346101ad575f3660031901126101ad576020604051601e8152f35b346101ad575f3660031901126101ad576020604051610e108152f35b346101ad575f3660031901126101ad576020604051620249f08152f35b346101ad575f3660031901126101ad575f6101a06103ba610d8b565b8281528260208201528260408201528260608201528260808201528260a08201528260c08201528260e0820152826101008201528261012082015282610140820152826101608201528261018082015201526101c06020610419610d8b565b5f8152818101905f8252604081015f8152606082015f8152608083015f815260a084015f815260c085016001815260e0860190600182526101008701925f84526101208801945f8652610140890196600188526101608a01985f8a526101a06101808c019b5f8d52019b5f8d526040519d8e915f835251151591015251151560408d015251151560608c015251151560808b015251151560a08a015251151560c089015251151560e08801525115156101008701525115156101208601525115156101408501525115156101608401525115156101808301525115156101a0820152f35b346101ad575f3660031901126101ad5760206040516207a1208152f35b346101ad576101603660031901126101ad57610534610b96565b60a03660231901126101ad5760603660c31901126101ad576101443567ffffffffffffffff81116101ad5761056d903690600401610bac565b50507f00000000000000000000000000000000000000000000000000000000000000006001600160a01b0316330361026e5760a06105aa36610e59565b20805f525f60205260405f206001810190815491610e1083018093116106e3578392421061075357600182554290555b54601e81148015610749575b801561073f575b6106f7575b505f52600160205260405f2060018060a01b0383165f5260205260405f2060018101805461012c81018091116106e35742106106d157600182554290555b6002810161063e8154610f93565b905554916004831480156106c7575b80156106bd575b61066f575b6040805163b47b2fb160e01b81525f6020820152f35b60408160ff61069f7fc8f34276f1fbee85e3eb56947f09800c868d6d670bdacd027664c6ff5c17b9f19486610f2a565b83519687521660208601526001600160a01b031693a3808080610659565b50600a8314610654565b506007831461064d565b506106dc8154610f93565b8155610630565b634e487b7160e01b5f52601160045260245ffd5b7fa7b648839ebbe507c8fe4052cef6c91bb21a8bd5f53189c2ed4ae9ee2a4d660b9061072283610deb565b6040805192835262ffffff91909116602083015290a280836105f2565b50609681146105ed565b50606481146105e6565b5061075e8154610f93565b81556105da565b346101ad575f3660031901126101ad5760206040516127108152f35b346101ad5761078f36610c3e565b5050507f00000000000000000000000000000000000000000000000000000000000000006001600160a01b03163303935061026e9250505057630a85dc2960e01b5f5260045ffd5b346101ad575f3660031901126101ad5760206040516101f48152f35b346101ad5760203660031901126101ad576020610811600435610d26565b60ff60405191168152f35b346101ad576101003660031901126101ad57610836610b96565b5060a03660231901126101ad5761084b610ca8565b506102ab610cbe565b346101ad5760403660031901126101ad57602061088d600435610887610878610b80565b61088183610deb565b92610f2a565b90610f5e565b62ffffff60405191168152f35b346101ad5760403660031901126101ad5760606004356108b8610b80565b906108c38282610ef1565b916108ce8183610f2a565b915f52600160205260405f209060018060a01b03165f5260205260ff600260405f200154916040519384521660208301526040820152f35b346101ad575f3660031901126101ad57602060405161012c8152f35b346101ad576101403660031901126101ad5761093c610b96565b60a03660231901126101ad5760603660c31901126101ad576101243567ffffffffffffffff81116101ad57610975903690600401610bac565b50507f00000000000000000000000000000000000000000000000000000000000000006001600160a01b0316330361026e5760609060a06109b536610e59565b206109cc6109c282610deb565b6108878484610f2a565b60405162ffffff909116808252926001600160a01b031691907f3f0c0dee1c0d3f6c3e3b93ccba14cc68eecef789330273f50995f4419ec8968290602090a3604051906315d7892d60e21b82525f60208301526040820152f35b346101ad5760403660031901126101ad57610a3f610b80565b6004355f52600160205260405f209060018060a01b03165f52602052606060405f20805490600260018201549101549060405192835260208301526040820152f35b346101ad575f3660031901126101ad57602060405161c3508152f35b346101ad57610aab36610bda565b5050507f00000000000000000000000000000000000000000000000000000000000000006001600160a01b03163303915061026e905057630a85dc2960e01b5f5260045ffd5b346101ad575f3660031901126101ad57602060405160968152f35b346101ad575f3660031901126101ad5760206040516109c48152f35b346101ad5760203660031901126101ad57600435610b4e610b4882610dc0565b91610deb565b6040805192835262ffffff91909116602083015290f35b346101ad575f3660031901126101ad57806203d09060209252f35b602435906001600160a01b03821682036101ad57565b600435906001600160a01b03821682036101ad57565b9181601f840112156101ad5782359167ffffffffffffffff83116101ad57602083818601950101116101ad57565b906101606003198301126101ad576004356001600160a01b03811681036101ad579160a06023198201126101ad57602491608060c3198301126101ad5760c491610144359067ffffffffffffffff82116101ad57610c3a91600401610bac565b9091565b906101a06003198301126101ad576004356001600160a01b03811681036101ad579160a06023198201126101ad57602491608060c3198301126101ad5760c49161014435916101643591610184359067ffffffffffffffff82116101ad57610c3a91600401610bac565b60c435906001600160a01b03821682036101ad57565b60e435908160020b82036101ad57565b6101206003198201126101ad576004356001600160a01b03811681036101ad579160a06023198301126101ad5760249160c4359160e43591610104359067ffffffffffffffff82116101ad57610c3a91600401610bac565b610d2f90610dc0565b6096811015610d85576064811015610d7f57603c811015610d7957601e811015610d7357600f811015610d6d5760051115610d68575f90565b600190565b50600290565b50600390565b50600490565b50600590565b50600690565b604051906101c0820182811067ffffffffffffffff821117610dac57604052565b634e487b7160e01b5f52604160045260245ffd5b5f525f60205260405f206001810154610e1081018091116106e357421015610de6575490565b505f90565b610df490610dc0565b6096811015610e51576064811015610e4957603c811015610e4257601e811015610e3b57600f811015610e345760051115610e2e57606490565b6101f490565b506109c490565b5061271090565b5061c35090565b50620249f090565b506203d09090565b60a09060231901126101ad576040519060a0820182811067ffffffffffffffff821117610dac57604052816024356001600160a01b03811681036101ad5781526044356001600160a01b03811681036101ad57602082015260643562ffffff811681036101ad5760408201526084358060020b81036101ad57606082015260a435906001600160a01b03821682036101ad5760800152565b5f52600160205260405f209060018060a01b03165f5260205260405f20600181015461012c81018091116106e357421015610de6575490565b90610f3491610ef1565b6008811015610f58576005811015610d855760031115610f5357600190565b600390565b50600a90565b62ffffff60ff91169116908181029181830414901517156106e3576207a1208111610f8b5762ffffff1690565b506207a12090565b5f1981146106e3576001019056fea2646970667358221220575230a9acd0cbe2125253b5c235f31a57949150f57c2265e22395e3040371b664736f6c634300081a0033","linkReferences":{}},"methodIdentifiers":{"GLOBAL_T1()":"eea45763","GLOBAL_T2()":"e6f3f0fe","GLOBAL_T3()":"d4630c27","GLOBAL_T4()":"f33e2f1f","GLOBAL_T5()":"d4d8a4c0","GLOBAL_T6()":"1f45f2c2","GLOBAL_WINDOW()":"d42bb75d","MAX_FEE()":"bc063e1a","TIER_0()":"95867a60","TIER_1()":"9dd58485","TIER_2()":"1d2a0561","TIER_3()":"a2f69a59","TIER_4()":"3eb50beb","TIER_5()":"cc286b8b","TIER_6()":"057b9d9a","USER_WINDOW()":"655584a8","afterAddLiquidity(address,(address,address,uint24,int24,address),(int24,int24,int256,bytes32),int256,int256,bytes)":"9f063efc","afterDonate(address,(address,address,uint24,int24,address),uint256,uint256,bytes)":"e1b4af69","afterInitialize(address,(address,address,uint24,int24,address),uint160,int24)":"6fe7e6eb","afterRemoveLiquidity(address,(address,address,uint24,int24,address),(int24,int24,int256,bytes32),int256,int256,bytes)":"6c2bbe7e","afterSwap(address,(address,address,uint24,int24,address),(bool,int256,uint160),int256,bytes)":"b47b2fb1","beforeAddLiquidity(address,(address,address,uint24,int24,address),(int24,int24,int256,bytes32),bytes)":"259982e5","beforeDonate(address,(address,address,uint24,int24,address),uint256,uint256,bytes)":"b6a8b0fa","beforeInitialize(address,(address,address,uint24,int24,address),uint160)":"dc98354e","beforeRemoveLiquidity(address,(address,address,uint24,int24,address),(int24,int24,int256,bytes32),bytes)":"21d0ee70","beforeSwap(address,(address,address,uint24,int24,address),(bool,int256,uint160),bytes)":"575e24b4","getCurrentFee(bytes32,address)":"6e2e1a96","getGlobalStats(bytes32)":"0e83774a","getHookPermissions()":"c4e833ce","getSurgeLevel(bytes32)":"737eae4f","getUserStats(bytes32,address)":"6661841c","globalActivity(bytes32)":"e87ddb4a","poolManager()":"dc4c90d3","userActivity(bytes32,address)":"4984f954"},"id":38}